:4000000000800020110000007D0900007D09000008B5044B1A6803F53F5302331A6000F0B5FC00BFFA46004010B5054C237833B9044B13B10448AFF300800123237010BDBA
:400040008081FF1F00000000EC1C0000084B10B51BB108480849AFF300800848036803B910BD074B002BFBD0BDE81040184700BF00000000EC1C00008481FF1F0881FF1F41
:400080000000000000B583B08DF804005F2001A90122002301F0F2F80028F7D101F0BCF910F0040FFAD101F0D3F95F2069460122002301F049F90028FDD101F0ADF910F020
:4000C000040FFAD101F0C4F99DF8000003B05DF804FB00BF00B583B020238DF80430E3238DF805305F2001A90222002301F0C6F80028F7D101F090F910F0040FFAD101F01D
:40010000A7F903B05DF804FB2DE9F0473C20FFF7B9FF04463D20FFF7B5FF000280B20443A4B23E20FFF7AEFF82463F20FFF7AAFF000280B24AEA000A1FFA8AFA2A20FFF789
:40014000A1FF05462B20FFF79DFF000280B20543ADB23520FFF796FF00F0030600F00C083220FFF78FFF40EA062001F0E7FA00224FF07F5301F048FB06460F463320FFF7B6
:4001800081FF40EA881001F0D9FA00224FF07F5301F03AFB32463B4601F082F98046894624B20FFA8AF0001B01F0C8FA02460B464046494601F052FC8046894628B2001B48
:4001C00001F0BCFA42464B4601F01EFB32463B4601F068F901F02AFDC0B2BDE8F08700BF2DE9F0473620FFF74DFF04463720FFF749FF000280B20443A4B23A20FFF742FF5F
:4002000082463B20FFF73EFF000280B24AEA000A1FFA8AFA2820FFF735FF05462920FFF731FF000280B20543ADB23020FFF72AFFC0F3470001F082FA06460F463120FFF794
:4002400021FFC0F3470001F079FA32463B4601F027F98046894624B20FFA8AF0001B01F06DFA02460B464046494601F0F7FB8046894628B2001B01F061FA42464B4601F024
:40028000C3FA32463B4601F00DF901F0CFFC80B2BDE8F08700B583B08DF804005D2001A90122002300F0EAFF0028F7D101F0B4F810F0040FFAD101F0CBF85D206946012262
:4002C000002301F041F80028FDD101F0A5F810F0040FFAD101F0BCF89DF8000003B05DF804FB00BF00B583B020238DF80430C0238DF805305D2001A90222002300F0BEFFB3
:400300000028F7D101F088F810F0040FFAD101F09FF803B05DF804FB38B52820FFF7BAFF04462920FFF7B6FF05462A20FFF7B2FF44EA052353EA004001D500F6FF70C0F3D0
:400340000F3038BD00B583B08DF804001E2001A90122002300F092FF0028F7D101F05CF810F0040FFAD101F073F81E2069460122002300F0E9FF0028FDD101F04DF810F083
:40038000040FFAD101F064F89DF8000003B05DF804FB00BF70B582B006460D46144600238DF807308DF806308DF805308DF804308DF803308DF802302820FFF7C3FF8DF866
:4003C00007002920FFF7BEFF8DF806002A20FFF7B9FF8DF805002B20FFF7B4FF8DF804002C20FFF7AFFF8DF803002D20FFF7AAFF8DF802009DF807209DF806300C49088819
:4004000042EA03231B1A33809DF805209DF80430488842EA03231B1A2B809DF803209DF80230898842EA03235B1A238002B070BD9C81FF1F00B583B022238DF804300023E0
:400440008DF805301E2001A90222002300F016FF0028F7D100F0E0FF10F0040FFAD100F0F7FF044A1046911C0432FFF793FF03B05DF804FB9C81FF1F00B583B08DF8040049
:400480006B2001A90122002300F0F8FE0028F7D100F0C2FF10F0040FFAD100F0D9FF6B2069460122002300F04FFF0028FDD100F0B3FF10F0040FFAD100F0CAFF9DF8000012
:4004C00003B05DF804FB00BF70B582B006460D4614461920FFF7D0FF8DF806001820FFF7CBFF8DF807001B20FFF7C6FF8DF804001A20FFF7C1FF8DF805001D20FFF7BCFFF2
:400500008DF802001C20FFF7B7FF8DF803009DF807209DF806300D49088842EA03231B1A33809DF805209DF80430488842EA03231B1A2B809DF803209DF80230898842EADC
:4005400003235B1A238002B070BD00BFA281FF1F70B582B006460D4614462920FFF78CFF8DF806002820FFF787FF8DF807002B20FFF782FF8DF804002A20FFF77DFF8DF8DD
:4005800005002D20FFF778FF8DF802002C20FFF773FF8DF803009DF807009DF80630DBB21049CA8812B2C2F108029340034333809DF805009DF80430DBB20A8912B2C2F1D3
:4005C0000802934003432B809DF803009DF80230DBB24A8912B2C2F1080293400343238002B070BDA281FF1F10B582B010238DF8043080238DF805306B2001A90222002355
:4006000000F03CFE0028F7D1074CA01D04F1080104F10A02FFF79CFF2046A11C221DFFF753FF02B010BD00BFA281FF1FF0B583B0204B1A889B78ADF804208DF80630002833
:4006400003DA2D230B70012400E0002400252B4625E07DB1671C02AA1A4412F8046C90FBF6F202F1300E01F804E006FB120040B2FCB212E002AA1A4412F8046C90FBF6F2BC
:400680003032D2B20A55302A07D990FBF6F206FB120040B20134E4B201250133DBB2022BD7D91DB9631C30220A55DCB200230B5503B0F0BDF01C0000F0B583B001902B237A
:4006C0008DF80330002805DA019B5B4201932D238DF80330019A2A4C84FB0230D317C3EBA0104FF47A7606FB1020264D85FB0032C317C3EB62124FF0640E0EFB1202224F98
:4007000087FB0230D317C3EBA00000EB80004000101A30300871019A84FB0230D317C3EBA01306FB132385FB0302D817C0EB62120EFB123287FB0237D217C2EBA702303215
:40074000CA70019884FB0023C217C2EBA31306FB130385FB0325DB17C3EB651330338B70019B84FB0324DB17C3EBA41330334B709DF803300B7000234B7103B0F0BD00BF9B
:40078000D34D62101F85EB516766666608B5FF2000F0F4FA08BD00BF00B59BB062B600F073FB00F035FB00F0EFFBFFF71DFFFFF791FCFFF73FFEFFF795FD00238DF86730F1
:4007C000ADF86430ADF86230ADF86030ADF85E30ADF85C30ADF85A30ADF85830ADF85630ADF85430ADF85230ADF8503012938DF84C3010938DF844300E938DF83C300C9381
:400800008DF834300A938DF82C3008938DF8243006938DF81C3004938DF8143002938DF80C3000938DF80430FFF76EFC8DF86700FFF7D6FCADF86400FFF76EFDADF86200EC
:4008400018A80DF15E0117AAFFF7A4FD0DF15A0016A90DF15602FFF737FE15A80DF1520114AAFFF775FE9DF8670040B212A9FFF7DDFE384800F022FB12A800F01FFBBDF9B5
:40088000600010A9FFF718FF334800F017FB10A800F014FBBDF95E000EA9FFF70DFF2F4800F00CFB0EA800F009FBBDF95C000CA9FFF702FF2A4800F001FB0CA800F0FEFA41
:4008C000BDF95A000AA9FFF7F7FE264800F0F6FA0AA800F0F3FABDF9580008A9FFF7ECFE214800F0EBFA08A800F0E8FABDF9560006A9FFF7E1FE1D4800F0E0FA06A800F0B1
:40090000DDFABDF9540004A9FFF7D6FE184800F0D5FA04A800F0D2FABDF9520002A9FFF7CBFE144800F0CAFA02A800F0C7FABDF950006946FFF7C0FE0F4800F0BFFA6846E4
:4009400000F0BCFAFFF722FF42F2107000F0C0F96AE700BFF41C0000041D0000141D0000241D0000341D0000401D00004C1D0000581D00006C1D0000801D000008B501F04A
:4009800075F903680C2B00D1FEE7FEE708B5104E104D16E029686B68AC68002204E051F8040B43F8040B0432A242F8D1E868002203E0002143F8041B04328242F9D1103542
:4009C000013E002EE6D101F057F9FFF7E5FEFEE7010000000C1E000008B5124A124B1A60124A136843F40073136000230AE0032B03D80F4A52F8231000E00E490E4A42F810
:400A0000231001332F2BF2D90C4B1A780C4B1A70094A0C4B1A6000F0BBF800220A4B1A6008BD00BF0004FA050CED00E014ED00E0000000007D0900000080FF1FBC760040D1
:400A40000481FF1F08ED00E00081FF1FFEE700BFF0B40022174611E050F82760F3B226F0FF0608E001EB420511F812406D78A5550132013BDBB2002BF4D10137172FEBD995
:400A8000F0BC70470A4B1B78DBB203F00701094A11701B09013213700822074B1A70202203F6C3031A704422A3F21A231A707047CF0100496E580040CD51004008B50A4621
:400AC000002101F00AF908BD38B50122264B1A801C2202331A70192502331D80182202331A70022203F27A231A7008224FF040231A70032103F5007319701C4B1B78DBB2C6
:400B00001B490B701B4B1A8041F25122023B1A8000240CE0184B1B7803F0010343EA440404F003044FF4F07000F0A6FC013D0DB1032CEFD115B90320FFF788FF0F4B4FF4C1
:400B400080721A8007221A7000220D490A704820023108701A700222033B1A70094A137843F00303137038BD8040004008010049A1460040224200402542004004400040E4
:400B800006400040A243004008B501F09BF808BD38B572B63A4A137843F00403137000240CE0384963001A1952000A4423445B00C8589188FFF782FF0134E4B2092CF0D9A1
:400BC000002410E02F49A3001A1952000A4452F83C0F23445B000B445168B3F84420FFF7D3FF0134E4B2012CECD94FF090402649FFF72EFF254A137843F002031370103268
:400C0000137843F002031370214C237843F040032370A2F58632513A137843F0100313701C481D490A22FFF7AFFF1C481C490522FFF7AAFF1B481C490822FFF7A5FF1B4817
:400C40001B490A22FFF7A0FF1A481B490822FFF79BFF1A4A137843F008031370184D61232B70FFF731FF81232B700122154B1A70FFF708FF144821460E22FFF785FF38BDCA
:400C8000E8460040941D00006000004803500140A0430040C0510040B0040048CB510040BC04004812510040C404004820510040CC04004832510040D804004822430040FD
:400CC0000048004004000840B043004001BE704710B5044605E0084B186800F0CDFBA4F50044B4F5004FF6D8034B586800FB04F000F0C2FB10BD00BF0C81FF1F70B5044605
:400D00000E46074B1D681F2802D90020FFF7DEFF04F01F04103455F8240045F8246070BD08ED00E038B504460D46072902D90020FFF7CCFF1F2C02D90020FFF7C7FF04F078
:400D40001F0000F1604000F564406D01EDB2057038BD00BF024A137843F080031370704778640040014B1870704700BF08640040014B1870704700BF48640040014B187011
:400D8000704700BF28640040014B1870704700BF88640040014B1878704700BF68640040014B1878704700BF5864004008B501E0FFF7F6FFFFF7EEFF10F0100FF8D108BDB6
:400DC00010B5114A137803F0C00343F0090313700E4C237843F001032370FF20FFF7C2FFFF20FFF7C5FF7F20FFF7C8FF0020FFF7CBFF00F049FB237843F01003237000F08E
:400E000047FBFFF7D3FF10BD786400409864004008B5054B1B7823B9FFF7D2FF0122024B1A70FFF797FF08BDAE81FF1F7222074B1A70202203331A700622613B1A7047227F
:400E400010331A70002250331A7070478865004010B500F019FB04460A4A137843F0200313700332137843F010031370013A137843F01003137000F033F8204600F008FB3B
:400E800010BD00BF9865004008B5054B1B7823B9FFF7CCFF0122024B1A70FFF7D9FF08BDAF81FF1F034B1B7813F0040FFAD1024B187070476A6500404B65004038B5074BC5
:400EC0001B782BB938BDFFF7EDFF0134A4B201E005460024285D0028F5D138BDAF81FF1F054A137843F0020313701032137843F002031370704700BFA243004038B502224A
:400F0000114B1A7081220E3B1A70082202331A700F2511331D70002401331C704FF400420A4B1A6028460721FFF7FCFE28460849FFF7E4FE1022074B1A70074B1C70074BD4
:400F40001C70074B1C7038BDD649004080E100E0B10F0000B281FF1FB681FF1FB881FF1FB481FF1F08B500F08FFA064A137843F0040313701032137843F00403137000F01A
:400F800087FA08BDA543004008B5074B1B7823B9FFF7B4FF0122044B1A70FFF7E3FF4FF40042024B1A6008BDB181FF1F00E100E038B5A44B1C78E4B2A34B1B7813F0400FCD
:400FC00000F0378114F0010F00F01B819E4B1B78453B052B00F21281DFE813F006008200100110010600DE0004F0DF0504F00A04082C42D1944B1B78DBB2452B35D1934B2C
:401000001B7813F0FF0F10D0914B1B681B78DBB2904A137004228B4B1A7001228E4B1A704622894B1A702C46EBE08C4B1B7813F0020F0DD08A4A137843F00A031370602242
:40104000814B1A704FF40042864B1A602C46D8E0854A137843F0100313701022834B1A700422023B1A702C46CBE00022754B1A704A22754B1A702C46C3E00A2C2BD1784A3E
:40108000137843F0A0031370744B1B7813F0020F14D06D4B1B7813F0080F01D0092300E00A236F4A11780B4313706022664B1A704FF400426B4B1A602C46A2E06A4A1378DB
:4010C00043F0100313701022684B1A700422023B1A702C4695E00020FFF7F8FD2C4690E014F0020F35D15C4B1B78584A1278DBB2934210D2584A1378DBB255490968CB5C42
:40110000DBB254490B7004214E4B197013780133DBB2137075E0514B1B7813F0020F0CD04F4A137843F00A0313706022464B1A704FF400424B4B1A6063E04B4A137843F0D1
:40114000100313701022494B1A700422023B1A7057E0424B1B7813F0020F0CD0404A137843F09A0313706022374B1A704FF400423C4B1A6045E03C4A137843F010031370DA
:4011800010223A4B1A700422023B1A70344A137843F09003137034E0354A1378DBB2354908682C490978C9B2C15413780133DBB213701378304A1278DBB2934203D21022C9
:4011C000204B1A701DE0254B1B7813F0020F0CD0234A137843F00903137060221A4B1A704FF400421F4B1A600BE01F4A137843F0100313700022134B1A7002E00020FFF7CC
:4012000065FD14F0200F1CD00F4B1B7813F0080F01D0012300E00223114A11780B431370114A137803F0EF0313701022064B1A7038BD054B1B7813F0100F02D11022024BD0
:401240001A7038BDD7490040B281FF1FB781FF1FBC81FF1FD8490040B481FF1FB581FF1FB681FF1F80E100E0D6490040D9490040B881FF1FC081FF1FC481FF1F002948D0D4
:4012800070B40C4626490978C9B2102906D12549097811F0080F11D1002112E020490978C9B260290CD14FF400451F490D601F4D297801F0F7012970002102E0012100E085
:4012C000022149BB4526164D2E700026184D2E70184D2A70184A1460184A1370134C227802F0FD0222704200D2B21548027013F0010F06D012220B4B1A700422023B1A707D
:4013000002E00122074B1A704FF400420D4B1A6002E0022108467047084670BC704700BFB281FF1FD949004080E200E0B681FF1FB481FF1FB781FF1FBC81FF1FB581FF1FD9
:40134000D849004000E100E000294AD070B40C4627490978C9B2102906D12649097811F0080F11D1002112E021490978C9B260290CD14FF4004520490D60204D297801F0F0
:40138000F7012970002102E0012100E0022159BB4926174D2E700026194D2E70194D2A70194A1460194A1370144C227802F0FE0222704200D2B242F001021548027013F0BD
:4013C000010F06D012220B4B1A700422023B1A7002E00122074B1A704FF400420D4B1A6002E0022108467047084670BC704700BFB281FF1FD949004080E200E0B681FF1F8A
:40140000B881FF1FC481FF1FC081FF1FB581FF1FD849004000E100E04FF40042084B1A60084B1878C0B2084B1B7813F0400F01D040F004004FF40042044B1A60704700BF75
:4014400080E100E0B681FF1FB281FF1F00E100E04FF40043044A1360044A107800211170034A1360704700BF80E100E0B681FF1F00E100E0000000000230800803D000BF2C
:4014800001380046FCD17047EFF3108072B6704780F31088704700BF81F0004102E000BF83F0004330B54FEA41044FEA430594EA050F08BF90EA020F1FBF54EA000C55EA1F
:4014C000020C7FEA645C7FEA655C00F0E2804FEA5454D4EB5555B8BF6D420CDD2C4480EA020281EA030382EA000083EA010180EA020281EA0303362D88BF30BD11F0004FF0
:401500004FEA01314FF4801C4CEA113102D0404261EB410113F0004F4FEA03334CEA133302D0524263EB430394EA050F00F0A780A4F10104D5F1200E0DDB02FA0EFC22FA8F
:4015400005F2801841F1000103FA0EF2801843FA05F359410EE0A5F120050EF1200E012A03FA0EFC28BF4CF0020C43FA05F3C01851EBE37101F0004507D54FF0000EDCF143
:40158000000C7EEB00006EEB0101B1F5801F1BD3B1F5001F0CD349085FEA30004FEA3C0C04F101044FEA445212F5800F80F09A80BCF1004F08BF5FEA500C50F1000041EB7B
:4015C000045141EA050130BD5FEA4C0C404141EB010111F4801FA4F10104E9D191F0000F04BF01460020B1FA81F308BF2033A3F10B03B3F120020CDA0C3208DD02F1140CB9
:40160000C2F10C0201FA0CF021FA02F10CE002F11402D8BFC2F1200C01FA02F120FA0CFCDCBF41EA0C019040E41AA2BF01EB0451294330BD6FEA04041F3C1CDA0C340EDCF1
:4016400004F11404C4F1200220FA04F001FA02F340EA030021FA04F345EA030130BDC4F10C04C4F1200220FA02F001FA04F340EA0300294630BD21FA04F0294630BD94F017
:40168000000F83F4801306BF81F480110134013D4EE77FEA645C18BF7FEA655C29D094EA050F08BF90EA020F05D054EA000C04BF1946104630BD91EA030F1EBF0021002068
:4016C00030BD5FEA545C05D14000494128BF41F0004130BD14F580043CBF01F5801130BD01F0004545F0FE4141F470014FF0000030BD7FEA645C1ABF194610467FEA655CC5
:401700001CBF0B46024650EA013406BF52EA033591EA030F41F4002130BD00BF90F0000F04BF0021704730B54FF4806404F132044FF000054FF0000150E700BF90F0000F94
:4017400004BF0021704730B54FF4806404F1320410F0004548BF40424FF000013EE700BF42004FEAE2014FEA31014FEA02701FBF12F07F4393F07F4F81F06051704792F0E3
:40178000000F14BF93F07F4F704730B54FF4607401F0004521F0004120E700BF50EA010208BF704730B54FF000050AE050EA010208BF704730B511F0004502D5404261EB9C
:4017C00041014FF4806404F132045FEA915C3FF4DCAE4FF003025FEADC0C18BF03325FEADC0C18BF033202EBDC02C2F1200300FA03FC20FA02F001FA03FE40EA0E0021FAAF
:4018000002F11444C1E600BF70B54FF0FF0C4CF4E06C1CEA11541DBF1CEA135594EA0C0F95EA0C0F00F0DEF82C4481EA030621EA4C5123EA4C5350EA013518BF52EA03355B
:4018400041F4801143F4801338D0A0FB02CE4FF00005E1FB02E506F00042E0FB03E54FF00006E1FB03569CF0000F18BF4EF0010EA4F1FF04B6F5007F64F5407404D25FEA3C
:401880004E0E6D4146EB060642EAC62141EA55514FEAC52040EA5E504FEACE2EB4F1FD0C88BFBCF5E06F1ED8BEF1004F08BF5FEA500E50F1000041EB045170BD06F0004650
:4018C00046EA010140EA020081EA0301B4EB5C04C2BFD4EB0C0541EA045170BD41F480114FF0000E013C00F3AB8014F1360FDEBF002001F0004170BDC4F10004203C35DA26
:401900000C341BDC04F11404C4F1200500FA05F320FA04F001FA05F240EA020001F0004221F0004110EBD37021FA04F642EB06015EEA430E08BF20EAD37070BDC4F10C04C0
:40194000C4F1200500FA04F320FA05F001FA04F240EA020001F0004110EBD37041F100015EEA430E08BF20EAD37070BDC4F1200500FA05F24EEA020E20FA04F301FA05F2DD
:4019800043EA020321FA04F001F0004121FA04F220EA020000EBD3705EEA430E08BF20EAD37070BD94F0000F0FD101F00046400041EB010111F4801F08BF013CF7D041EADD
:4019C000060195F0000F18BF704703F00046520043EB030313F4801F08BF013DF7D043EA0603704794EA0C0F0CEA135518BF95EA0C0F0CD050EA410618BF52EA4306D1D1DD
:401A000081EA030101F000414FF0000070BD50EA410606BF1046194652EA430619D094EA0C0F02D150EA013613D195EA0C0F05D152EA03361CBF104619460AD181EA0301B0
:401A400001F0004141F0FE4141F470014FF0000070BD41F0FE4141F4780170BD70B54FF0FF0C4CF4E06C1CEA11541DBF1CEA135594EA0C0F95EA0C0F00F0A7F8A4EB05045D
:401A800081EA030E52EA03354FEA013100F088804FEA03334FF0805545EA131343EA12634FEA022245EA111545EA10654FEA00260EF000419D4208BF964244F1FD0404F5B8
:401AC000407402D25B084FEA3202B61A65EB03055B084FEA32024FF480104FF4002CB6EB020E75EB030E22BFB61A754640EA0C005B084FEA3202B6EB020E75EB030E22BFBD
:401B0000B61A754640EA5C005B084FEA3202B6EB020E75EB030E22BFB61A754640EA9C005B084FEA3202B6EB020E75EB030E22BFB61A754640EADC0055EA060E18D04FEA98
:401B4000051545EA16754FEA06164FEAC30343EA52734FEAC2025FEA1C1CC0D111F4801F0BD141EA00014FF000004FF0004CB6E711F4801F04BF01430020B4F1FD0C88BF69
:401B8000BCF5E06F3FF6AFAEB5EB030C04BFB6EB020C5FEA500C50F1000041EB045170BD0EF0004E4EEA113114EB5C04C2BFD4EB0C0541EA045170BD41F480114FF0000EA8
:401BC000013C90E645EA060E8DE60CEA135594EA0C0F08BF95EA0C0F3FF43BAF94EA0C0F0AD150EA01347FF434AF95EA0C0F7FF425AF104619462CE795EA0C0F06D152EA78
:401C000003353FF4FDAE1046194622E750EA410618BF52EA43067FF4C5AE50EA41047FF40DAF52EA43057FF4EBAE12E74A0011D212F5001211D20DD56FF47873B3EB62522B
:401C40000ED44FEAC12343F0004343EA505323FA02F070474FF00000704750EA013002D14FF0FF3070474FF000007047014B1868704700BF7C81FF1F0E4B70B51E460E4C71
:401C80000025E41AA410A54204D056F8253098470135F8E700F0A8F8084B094C1E46E41AA4100025A54204D056F8253098470135F8E770BDF41D0000F41D0000F41D0000D6
:401CC000FC1D000010B5431E0A44914204D011F8014B03F8014FF8E710BD03460244934202D003F8011BFAE77047000000000000640A01000A54656D706572617475726578
:401D0000203A20000A585F4D6167656E65746F203A2000000A595F4D6167656E65746F203A2000000A5A5F4D6167656E65746F203A2000000A585F4779726F203A20000009
:401D40000A595F4779726F203A2000000A5A5F4779726F203A2000000A585F416363656C657261746F72203A200000000A595F416363656C657261746F72203A2000000067
:401D80000A5A5F416363656C657261746F72203A20000000C84900401900005100401000405100403000F0510040100000000140001000140140000480180140800300409E
:401DC0000140000A004C01400002005001402000605200402804004806000018014030040048800043000000F8B500BFF8BC08BC9E4670474D000000D9090000F8B500BF3A
:401E0000F8BC08BC9E46704729000000201E00000881FF1F780000004800000000000000000000000000E02EC05D00001800000000366E01000000000000000000000000D9
:401E40000000000000000000000000000000000000000000E41D00000000000000000000000000000000000000000000000000000000000000000000000000000000000061
:401E800000000000000000000000000000000000000000001C81FF1F0000000000000000000000000000000000000000000000000000000000000000000000000000000067
:401EC00000000000000000000000000000000000000000000000000000000000000000000000000000000000000000000000000000000000000000000000000000000000E2
:401F000000000000000000000000000000000000000000000000000000000000000000000000000000000000000000000000000000000000000000000000000000000000A1
:401F40000000000000000000000000000000000000000000000000000000000000000000000000000000000000000000000000000000000000000000000000000000000061
:401F80000000000000000000000000000000000000000000000000000000000000000000000000000000000000000000000000000000000000000000000000000000000021
:020000040003F7
:0200000480007A
:40000000025200400264004003650040010701405A08014036090140040A0140020B014003150140031701400D18014041190140661A01404A1B01400442014003430140AB
:40004000024501400346014007480140124901400C4C01400C4D0140045001400151014011021902880D890D88728A0F8B38EE080301040108010B0E1001150816021A08AF
:400080001B041E022A082C04300431083201330134083502360237043E514020410345D24610480B49FF4AFF4BFF4DA04F04501852805405580459045A045B045C015F0111
:4000C000604062C06440654066C068C06AC06CC06EC08F01920894019A04A607AB01B004B202B301B408B601BB02BF04C060C105C5D1C602C807C9FFCAFFCBFFCDA0CF04B0
:40010000D018D280D405D804D904DA04DB04DC10DF01E040E2C0E440E540E6C0E8C0EAC0ECC0EEC0042809020A250B020C100E420F2810201401172019A01AA41E191F02AC
:400140002101220424402580272829202D102E10372838803C023E2044104720482049224B804D014F0850405340562059825A085C405D015E0871027401A580AF01C06057
:40018000C2FEC4C4CA04CC60CEA8D060D20CD6DB38023E0158045F011B018D80E008E401EA01E208E680EE01800286028A018E029402A201B202B401B808BE10D804DC0165
:4001C000DF010040024003180501071509080C100E200F021080150216C2172819201B081C601D091E292401260327102D182E82358137143CA03E094508464047404C802D
:400200004D104E0257105E086C146D206E44744075087608772989108B018F0291129302942896409C01A302A601A710AA40C0FFC2E4C4F8CAF0CCF0CEF0D0D0D230D6401F
:40024000E208E68004730511060C07260B08112C131314031604171319111A081B0E1C2A1E4424732604272C28802A152B102D403030310F32C03340340F352A3710380AA1
:400280003A203B223E013F444004464049FF4A074BFF4C404D204EF04F0550085401580459045A045B045C115D115F01604061A8624063208014812883468410857C860C34
:4002C000880C897C8A118C1C8E02920395049719980999509A109B26A810B01FB103B360B51CBF01C036C102C60BC7ECC834C9FFCAFFCBFFCEF0CF44D00CD418D804D904FA
:40030000DA04DB04DC11DD11DF01E6C0EA40EB0200040210040406800709082009080A020C010E800F08100812201520184419041B041E8021202265230825042754282247
:4003400029142B0930083221330134103714380439203D203E064040452046104C0850085110550856805709580259105A885C01652067028A028D849001920493029920AB
:400380009C119D809E029F44A110C0F4C257C446CA0ECC67CEE6D061D220D68FD830E008E401EA013E105320CE20D4209610AF20EE105A80D4018E409680E00886208B029D
:4003C00092809610AA40E210EE80122016405A8072207F028220864092809A20A302AA10C430D480DC80DE20E010E480EA801101132015087B107F40850189048C02C40E74
:40040000DE03E402E601104074028310874088409780A002A710AB20C408DE04E20100030C0310021C0203C082840000430000001F0020041C08230003E700180810000068
:40044000001C00E133C00C00023C00C2008023003F440000041800000C0000E301FF40002C380F1F100040C000000A08000010003604050001E0C0000AFFFFFF62A0F04131
:400480000C000000000002120404040411110001000000000000400200103010001010120000000000000000000000000000000083004084870087000004000000080004C0
:4004C00000000000000B0B000000000004000006060002000000000001020200020000000000000000000000000000000000000000000000000000000000000000000000CD
:4005000000000000000000000000000000000000000000000000000000000000000000000000000000000000000000000000000000000000000000000000000000000000BB
:40054000000000000000000000000000000000000000000000000000000000000000000000000000000000000000000000000000000000000000000000000000000000007B
:40058000000000000000000000000000000000000000000000000000000000000000000000000000000000000000000000000000000000000000000000000000000000003B
:4005C00000000000000000000000000000000000000000000000000000000000000000000000000000000000000000000000000000000000000000000000000000000000FB
:0200000490006A
:0400000000004005B7
:0200000490105A
:04000000BC90ACAF55
:0200000490303A
:020000004A753F
:0200000490402A
:4000000000000000000000000000000000000000000000000000000000000000000000000000000000000000000000000000000000000000000000000000000000000000C0
:400040000000000000000000000000000000000000000000000000000000000000000000000000000000000000000000000000000000000000000000000000000000000080
:400080000000000000000000000000000000000000000000000000000000000000000000000000000000000000000000000000000000000000000000000000000000000040
:4000C0000000000000000000000000000000000000000000000000000000000000000000000000000000000000000000000000000000000000000000000000000000000000
:0200000490501A
:0C00000000012E16106900012E235ADEAC
:00000001FF